:10081F00454E5445522050494E204E554D4245525B
:10082F0000454E544552204E45572050494E0050DA
:10083F00494E204348414E4745442100494E5345B8
:10084F00525420594F55522043415244002057458E
:10085F004C434F4D4521002057524F4E47204341A7
:10086F005244210057524F4E472050494E002048C6
:10087F00656C6C6F200000000000002049522D4372
:08088F004F44453A2D2D48208D
:100A390005223132333400050E2A41422300051DB7
:050A49002A2A2A2A0000
:0F0A72005389F1438901758CB7758AFED28C22A6
:03000B00020A05E1
:100A0500C0E0B2A430A409E527F58C85288A8007C3
:0A0A1500E515F58C85168AD0E03255
:080897008F318E308D2F8C2E65
:10089F00753500753402753390753246E4FBFA797D
:1008AF00C87842AF35AE34AD33AC3212020FAB3134
:1008BF00AA30A92FA82E1201061202EA8E278F281E
:1008CF00AC27AD28E41202B1A804A905AA06AB070C
:1008DF00AF35AE34AD33AC321200111202EA8E15C1
:1008EF008F16C374FF9528F52874FF9527F527C336
:0C08FF0074FF9516F51674FF9515F5159D
:01090B0022C9
:100A4F00D2AFD2A9120A727F007E007DA07C400235
:020A5F000897F6
:0B0AAC007F007E007DA07C40020897C8
:0B0AB7007F007E007D207C410208973C
:040A1F007F017E00D5
:100A2300EF1FAA0670011E4A600BE4FDEDC3940D8F
:050A330050EE0D80F7FC
:010A3800229B
:090ACC00D288D2A8D2AFD2B22226
:0300030002061AD8
:10061A00C0E0C083C082C0D075D000C000C002C094
:07062A0004C005C006C00773
:10063100750D007F467E00120A2330B2030206FCCC
:100641009003E820B218D3E5829400E5839400403A
:100651000D120A1FE582158270E9158380E520B22B
:10066100030206FC9001F430B218D3E5829400E550
:10067100839400400D120A1FE582158270E91583EB
:1006810080E5E4FC75290090003C20B218D3E58296
:100691009400E5839400400D120A1FE582158270D3
:1006A100E9158380E59001F430B223D3E58294000B
:1006B100E58394004018120A1F050DE5821582702A
:1006C100021583E50DD3941E40DED2A8802D741748
:1006D1002CF8C000E6C313D000F6E50DC394084022
:1006E1000874172CF8E64480F6750D000529E529F4
:0B06F100C3940840920CEC6404708974
:1006FC00D007D006D005D004D002D000D0D0D08204
:05070C00D083D0E032B3
:10079D00E519C4540FF51BE519540FF51CE51BD3D2
:1007AD009409E51B40052437FE80032430FEE51C2B
:1007BD00D39409E51C40052437FF80032430FFBE88
:1007CD004505BF39027D30BE4605BF33027D31BEC2
:1007DD004505BF37027D32BE4105BF31027D33BEB7
:1007ED004605BF37027D34BE4505BF33027D35BE9C
:1007FD004105BF35027D36BE4205BF44027D37BE81
:10080D004105BF44027D38BE4205BF35027D39AF7B
:01081D0005D5
:01081E0022B7
:0C090C00120A4F120ACC120A81120A6172
:10091800E4F52AF52B7F01120A907BFF7A08791FEC
:10092800E4F532FD12098F7F647E001209C07FC092
:10093800120A907422252BF8E6601B1203927408A1
:10094800252BF8A6077F647E001209C0052BE52B2E
:0909580070E1052A80DD1204DFC4
:0209610080B55F
:1004DF00E508650E707CE509650F7076E50A651015
:1004EF007070E50B6511706AE50C651270647F64BE
:1004FF00FE1209C07F01120A907BFF7A087930E45F
:10050F00F532FD12098F7F647E001209C07FC01281
:10051F000A90E4F52C7422252CF8E6602712079D2B
:10052F008F2D12079DEF652D60F812079D8F2D12ED
:10053F000A9E7422252CF8A62D7F647E001209C016
:10054F00052C80D17F01120A907BFF7A08793E0239
:10055F000606E508651D7050E509651E704AE50A37
:10056F00651F7044E50B6520703EE50C6521703802
:10057F007F01120A907BFF7A08794BE4F532FD1266
:10058F00098F7F647E001209C0120AC28F2DE52DDC
:10059F0064017F0170028030120A907BFF7A087924
:1005AF0066E4F532FD02098FE5086522703EE50924
:1005BF0065237038E50A65247032E50B6525702CCC
:1005CF00E50C652670267F01120A907BFF7A087969
:1005DF005CE4F532FD12098F7FF47E011209C0121F
:1005EF000AB77FB87E0B1209C0020AAC7F01120A4C
:1005FF00907BFF7A087973E4F532FD12098F7FF44F
:0A060F007E011209C07F01120A905B
:0106190022BE
:0809B800C2A5D2A77F017E0059
:1009C000E4FDFCC3ED9FEC9E5015E4FBFA0BBB006D
:0F09D000010AEB64704A70F50DBD00010C80E464
:0109DF0022F5
:0F0A81007F0F120A907F38120A907F01020A90AD
:0E0A90008F80C2A61209B8C2A77F050209C056
:0E0A9E008F80D2A61209B8C2A77F050209C038
:100963008B338A348935AB33AA34A93512036B60D0
:100973001A0535E5357002053414F912036BFF12BD
:0C0983000A9E7F327E001209C080DB2239
:10098F008B2E8A2F8930A905B90108E532540F44FF
:10099F00808009B9020AE532540F44C0FF120A9051
:0909AF00AB2EAA2FA93002096346
:100A610053892F438920758DFD759850D28ED29967
:010A71002262
:080AD5003099FDC2998F9922AE
:1009E0008B368A378938AB36AA37A93812036B6041
:1009F000130538E5387002053714F912036BFF123E
:050A00000AD580E2228E
:060ADD00A298E433FF22A1
:05000600C298AF992231
:10039200E4FFFEEF4E60030204DEC297D296D295CE
:1003A200D29420930F7F2A120A9E7F647E00120944
:1003B200C07F312220920F7F2A120A9E7F647E0024
:1003C2001209C07F322220910F7F2A120A9E7F6477
:1003D2007E001209C07F332220900F7F2A120A9ECC
:1003E2007F647E001209C07F4122D297C296D295C5
:1003F200D29420930F7F2A120A9E7F647E001209F4
:10040200C07F342220920F7F2A120A9E7F647E00D0
:100412001209C07F352220910F7F2A120A9E7F6423
:100422007E001209C07F362220900F7F2A120A9E78
:100432007F647E001209C07F4222D297D296C29573
:10044200D29420930F7F2A120A9E7F647E001209A3
:10045200C07F372220920F7F2A120A9E7F647E007D
:100462001209C07F382220910F7F2A120A9E7F64D0
:100472007E001209C07F392220900F7F2A120A9E25
:100482007F647E001209C07F4322D297D296D29512
:10049200C29420930F7F2A120A9E7F647E00120963
:1004A200C07F2A2220920F7F2A120A9E7F647E003A
:1004B2001209C07F302220910F7F2A120A9E7F6488
:1004C2007E001209C07F23223090030203957F2A07
:0C04D200120A9E7F647E001209C07F4465
:0104DE0022FB
:10000E00020356E86480F8E933E83360110460F0C7
:10001E00ED33EC337009E8FCE9FDEAFEEBFF220458
:10002E0060DED3EB9FEA9EE99DE8C2E78CF0C2F753
:10003E0095F0400CE8CCF8E9CDF9EACEFAEBCFFB1F
:10004E0012032185D0F05804700320D5B3E8047054
:10005E00075002B2D502036092D5EC0460F7E4CCEF
:10006E00C0E0C398F8603B94186008400DD0E0FBE8
:10007E00020338E4FBFAC9FC8028E830E406E4C940
:10008E00FBE4CAFCE830E305E4C9CACBFCE854073C
:10009E006010F8C3E913F9EA13FAEB13FBEC13FC47
:1000AE00D8F130F52FC3E49CFCEF9BFFEE9AFEEDEA
:1000BE0099FDD0E0FBEF4E4D4C701222DB03020394
:1000CE005DEC2CFCEF33FFEE33FEED33FDED30E750
:1000DE00EB020338EF2BFFEE3AFEED39FDD0E0FBDD
:1000EE0050130BBB0003020360ED13FDEE13FEEF86
:0800FE0013FFEC13FC020338B0
:10010600EC4D6011E8497017ED33EC3304600DE4F3
:10011600FCFFFEFD22E933E8330470F802035612B1
:10012600032158046009E4CC2481500628500902B2
:10013600036028400302035DC0E0EB4A7044B980C7
:1001460006D0E0FB02034CEF4E701CBD8008EBFFAF
:10015600EAFEE9FD80EBE98DF0A4FEE5F00201EF91
:10016600E9CDF9EAFEEBFFEF89F0A4FCE5F0CE89D4
:10017600F0A42EFFE435F0CD89F0A42DFEE435F091
:100186008067EF4E7005BD80D780C3EF8BF0A4ACBF
:10019600F0EE8BF0A42CFCE435F0F8EF8AF0A42CFA
:1001A600E5F038FCE433CB8DF0A42CFCE5F03BF80D
:1001B600EE8AF0A42CFCE5F038F8E433CF89F0A4FD
:1001C6002CFCE5F038CF3400CE89F0A42FFFE5F003
:1001D6003EFEE433C98DF0A42EFEE5F039CD8AF05B
:1001E600A42FFFE5F03EFEE43DFD33D0E0FB5007D3
:1001F6000BBB000F020360EC2CFCEF33FFEE33FE6B
:06020600ED33FD02033898
:10020C00020360EC5D046005E859047003020356B8
:10021C00120321580460F6EC4860F2EC7004FDFE09
:10022C00FF22C860DB2481C85009C39860025006C5
:10023C0002035D9850CAF582E9294B4A7005AB82DE
:10024C0002034C75F0007C1A7880C3EF9BEE9AED9C
:10025C0099400DC3EF9BFFEE9AFEED99FDE842F03D
:10026C00DC23ACF0D0E0FFD0E0FED0E0FDAB822090
:10027C00E7101BEB60BAEC2CFCEF33FFEE33FEED1A
:10028C0033FD020338E803F830E705C0F075F000E1
:10029C00EF2FFFEE33FEED33FD40B830E7C280AAFE
:1002AC0075F020800E75F010800575F0087D007ECD
:1002BC00007F003392D530D503120384EC33401009
:1002CC00EF33FFEE33FEED33FDEC33FCD5F0ED22D6
:0E02DC00E5F0247EA2D513CC92E7CDCEFF2212
:1002EA00EDD2E7CD33EC3392D524814006E4FFFE0C
:1002FA00FDFC22FCE4CFCECDCC24E0501174FF806B
:10030A00EDC3CC13CCCD13CDCE13CECF13CF047007
:07031A00F030D5DE02038480
:10032100E9D2E7C933E833F892D5EDD2E7CD33EC22
:0703310033FC5002B2D5229B
:10033800EC30E7100FBF000C0EBE00080DBD000426
:100348000BEB6014A2D5EB13FCED92E7FD2274FFD2
:10035800FCFDFEFF22E480F8A2D574FF13FC7D802B
:03036800E480EF3F
:03000000020711E3
:0C071100787FE4F6D8FD758138020758A7
:10036B00BB010689828A83E0225002E722BBFE0290
:09037B00E32289828A83E49322C3
:0E038400C3E49FFFE49EFEE49DFDE49CFC228A
:0A0AC2003098FDAF99C2987E002223
:10071D0002090CE493A3F8E493A34003F68001F2DD
:10072D0008DFF48029E493A3F85407240CC8C333DD
:10073D00C4540F4420C8834004F456800146F6DFAC
:10074D00E4800B0102040810204080900A39E47EF9
:10075D00019360BCA3FF543F30E509541FFEE493A1
:10076D00A360010ECF54C025E060A840B8E493A368
:10077D00FAE493A3F8E493A3C8C582C8CAC583CA93
:10078D00F0A3C8C582C8CAC583CADFE9DEE780BE4B
:010A4E0000A7
:00000001FF
