:10094200454E5445522050494E204E554D42455237
:1009520000454E544552204E45572050494E0050B6
:10096200494E204348414E47454421005357495080
:100972004520594F55522043415244002057454C7F
:10098200434F4D4521002057524F4E47204341527D
:0D09920044210057524F4E472050494E005F
:100B170005213132333400050D2A41422300051CDB
:050B27002A2A2A2A0021
:0F0B50005389F1438901758CB7758AFED28C22C7
:03000B00020ACA1C
:100ACA00C0E0B2A330A309E526F58C85278A800702
:0A0ADA00E514F58C85158AD0E03292
:0808CD008F328E318D308C2F2B
:1008D500753600753502753490753346E4FBFA7943
:1008E500C87842AF36AE35AD34AC3312020FAB32F9
:1008F500AA31A930A82F1201061202EA8E268F27E7
:10090500AC26AD27E41202B1A804A905AA06AB07D7
:10091500AF36AE35AD34AC331200111202EA8E1487
:100925008F15C374FF9527F52774FF9526F526C304
:0C09350074FF9515F51574FF9514F5146A
:010941002293
:100B2D00D2AFD2A9120B507F007E007DA07C400277
:020B3D0008CDE1
:0B0BA7007F007E007DA07C400208CD96
:0B0BB2007F007E007D207C410208CD0A
:040AE4007F017E0010
:100AE800EF1FAA0670011E4A600BE4FDEDC3940DCA
:050AF80050EE0D80F737
:010AFD0022D6
:090BD100D288D2A8D2AFD2B22220
:03000300020648AA
:10064800C0E0C083C082C0D075D000C000C002C066
:0706580004C005C006C00745
:10065F00750C007F467E00120AE830B20302072AAB
:10066F009003E820B218D3E5829400E5839400400C
:10067F000D120AE4E582158270E9158380E520B238
:10068F000302072A9001F430B218D3E5829400E5F3
:10069F00839400400D120AE4E582158270E91583F8
:1006AF0080E5E4FC75280090003C20B218D3E58269
:1006BF009400E5839400400D120AE4E582158270E0
:1006CF00E9158380E59001F430B223D3E5829400DD
:1006DF00E58394004018120AE4050CE58215827038
:1006EF00021583E50CD3941E40DED2A8802D74161C
:1006FF002CF8C000E6C313D000F6E50CC3940840F5
:10070F000874162CF8E64480F6750C000528E528C9
:0B071F00C3940840920CEC6404708945
:10072A00D007D006D005D004D002D000D0D0D082D5
:05073A00D083D0E03285
:1007CB00E518C4540FF51AE518540FF51BE51AD3A9
:1007DB009409E51A40052437FE80032430FEE51BFF
:1007EB00D39409E51B40052437FF80032430FFBE5B
:1007FB004505BF39027D30BE4605BF33027D31BE94
:10080B004505BF37027D32BE4105BF31027D33BE88
:10081B004605BF37027D34BE4505BF33027D35BE6D
:10082B004105BF35027D36BE4205BF44027D37BE52
:10083B004105BF44027D38BE4205BF35027D39AF4D
:01084B0005A7
:01084C002289
:10084D00120B2D120BD1120B5F120B3FE4F529F594
:10085D002AAF2A120AA87421252AF8A6077F017E3D
:10086D0000120A3D052AE52A70020529C39404E504
:05087D0029940040DC9D
:10088200E4F52BF52C7F01120B7D7BFF7A0979426F
:10089200E4F533FD120A0C7F647E00120A3D7FC02C
:1008A200120B7D7421252CF8E6601B1204FB7408E0
:1008B200252CF8A6077F647E00120A3D052CE52C44
:0908C20070E1052B80DD120392A8
:0208CB0080B5F6
:10039200E508650D6003020442E509650E6003028B
:1003A2000442E50A650F6003020442E50B65106032
:1003B20003020442E50C651160030204427F64FEFD
:1003C200120A3D7F01120B7D7BFF7A097953E4F516
:1003D20033FD120A0C7F647E00120A3D7FC0120BAD
:1003E2007DE4F52D7421252DF8E660271207CB8FC9
:1003F2002E1207CBEF652E60F81207CB8F2E120B51
:100402008B7421252DF8A62E7F647E00120A3D05ED
:100412002D80D1E4F52D7421252DF8E6FDAF2D12A6
:100422000AFE7F017E00120A3D052DE52DC39404CC
:1004320040E47F01120B7D7BFF7A0979610204E7B8
:10044200E508651C7050E509651D704AE50A651EE0
:100452007044E50B651F703EE50C652070387F0126
:10046200120B7D7BFF7A09796EE4F533FD120A0CDB
:100472007F647E00120A3D120BC78F2EE52E6401A7
:100482007F0170028030120B7D7BFF7A097988E44C
:10049200F533FD020A0CE5086521703EE509652287
:1004A2007038E50A65237032E50B6524702CE50C83
:1004B200652570267F01120B7D7BFF7A09797EE428
:1004C200F533FD120A0C7FF47E01120A3D120BB2C3
:1004D2007FB87E0B120A3D020BA77F01120B7D7BB8
:1004E200FF7A097995E4F533FD120A0C7FF47E0157
:0804F200120A3D7F01120B7D8F
:0104FA0022DF
:080A3500C2A5D2A77F017E00DB
:100A3D00E4FDFCC3ED9FEC9E5015E4FBFA0BBB00EF
:0F0A4D00010AEB64704A70F50DBD00010C80E4E6
:010A5C002277
:0F0B5F007F0F120B7D7F38120B7D7F01020B7D04
:0E0B7D008F80C2A6120A35C2A77F05020A3D6C
:0E0B8B008F80D2A6120A35C2A77F05020A3D4E
:1009E0008B348A358936AB34AA35A93612036B604D
:1009F0001A0536E5367002053514F912036BFF123D
:0C0A00000B8B7F327E00120A3D80DB224F
:100A0C008B2F8A308931A905B90108E533540F447D
:100A1C00808009B9020AE533540F44C0FF120B7DE4
:090A2C00AB2FAA30A9310209E048
:100B3F0053892F438920758DFD759850D28ED29988
:010B4F002283
:080BDA003099FDC2998F9922A8
:100A83008B378A388939AB37AA38A93912036B6097
:100A9300130539E5397002053814F912036BFF1297
:050AA3000BDA80E222E5
:060BE200A298E433FF229B
:05000600C298AF992231
:1004FB00E4FFFEEF4E6003020647C297D296D295F9
:10050B00D29420930F7F2A120B8B7F647E00120AEA
:10051B003D7F312220920F7F2A120B8B7F647E004E
:10052B00120A3D7F322220910F7F2A120B8B7F64A0
:10053B007E00120A3D7F332220900F7F2A120B8BF5
:10054B007F647E00120A3D7F4122D297C296D295DC
:10055B00D29420930F7F2A120B8B7F647E00120A9A
:10056B003D7F342220920F7F2A120B8B7F647E00FB
:10057B00120A3D7F352220910F7F2A120B8B7F644D
:10058B007E00120A3D7F362220900F7F2A120B8BA2
:10059B007F647E00120A3D7F4222D297D296C2958B
:1005AB00D29420930F7F2A120B8B7F647E00120A4A
:1005BB003D7F372220920F7F2A120B8B7F647E00A8
:1005CB00120A3D7F382220910F7F2A120B8B7F64FA
:1005DB007E00120A3D7F392220900F7F2A120B8B4F
:1005EB007F647E00120A3D7F4322D297D296D2952A
:1005FB00C29420930F7F2A120B8B7F647E00120A0A
:10060B003D7F2A2220920F7F2A120B8B7F647E0064
:10061B00120A3D7F302220910F7F2A120B8B7F64B1
:10062B007E00120A3D7F23223090030204FE7F2AB4
:0C063B00120B8B7F647E00120A3D7F448E
:010647002290
:050B9900120B9ED2A129
:080B9E007F017E02DEFEDFFA9A
:010BA600222C
:0F0B6E00D2A0120B99C2A0120B9EC2A1020B9E25
:0A0BBD00C2A0120B99D2A0020B9EF9
:02099F00AD07A2
:1009A100E4FBFAEDC4131313540124FF92A0ED25C7
:1009B100E0FD120B99C2A1120B9E0BBB08E5D2A060
:1009C100120B9ED2A130A00F0AEAD394C840F6C2FE
:0E09D100A1120B9E7F0022C2A1120B9E7F017D
:0109DF0022F5
:100A5D00E4FDFCD2A0120B9ED2A1120B9EEC25E060
:100A6D00FCA2A0E4334204120B9EC2A1120B9E0DF8
:050A7D00BD08E5AF0417
:010A82002251
:100AFE00AC05A907120B6E7FA012099FAF01120958
:090B0E009FAF0412099F020BBD08
:020AA800AC0799
:100AAA00120B6E7FA012099FAF0412099F120B6EE0
:0F0ABA007FA112099F120A5DAD07120BBDAF0598
:010AC900220A
:10000E00020356E86480F8E933E83360110460F0C7
:10001E00ED33EC337009E8FCE9FDEAFEEBFF220458
:10002E0060DED3EB9FEA9EE99DE8C2E78CF0C2F753
:10003E0095F0400CE8CCF8E9CDF9EACEFAEBCFFB1F
:10004E0012032185D0F05804700320D5B3E8047054
:10005E00075002B2D502036092D5EC0460F7E4CCEF
:10006E00C0E0C398F8603B94186008400DD0E0FBE8
:10007E00020338E4FBFAC9FC8028E830E406E4C940
:10008E00FBE4CAFCE830E305E4C9CACBFCE854073C
:10009E006010F8C3E913F9EA13FAEB13FBEC13FC47
:1000AE00D8F130F52FC3E49CFCEF9BFFEE9AFEEDEA
:1000BE0099FDD0E0FBEF4E4D4C701222DB03020394
:1000CE005DEC2CFCEF33FFEE33FEED33FDED30E750
:1000DE00EB020338EF2BFFEE3AFEED39FDD0E0FBDD
:1000EE0050130BBB0003020360ED13FDEE13FEEF86
:0800FE0013FFEC13FC020338B0
:10010600EC4D6011E8497017ED33EC3304600DE4F3
:10011600FCFFFEFD22E933E8330470F802035612B1
:10012600032158046009E4CC2481500628500902B2
:10013600036028400302035DC0E0EB4A7044B980C7
:1001460006D0E0FB02034CEF4E701CBD8008EBFFAF
:10015600EAFEE9FD80EBE98DF0A4FEE5F00201EF91
:10016600E9CDF9EAFEEBFFEF89F0A4FCE5F0CE89D4
:10017600F0A42EFFE435F0CD89F0A42DFEE435F091
:100186008067EF4E7005BD80D780C3EF8BF0A4ACBF
:10019600F0EE8BF0A42CFCE435F0F8EF8AF0A42CFA
:1001A600E5F038FCE433CB8DF0A42CFCE5F03BF80D
:1001B600EE8AF0A42CFCE5F038F8E433CF89F0A4FD
:1001C6002CFCE5F038CF3400CE89F0A42FFFE5F003
:1001D6003EFEE433C98DF0A42EFEE5F039CD8AF05B
:1001E600A42FFFE5F03EFEE43DFD33D0E0FB5007D3
:1001F6000BBB000F020360EC2CFCEF33FFEE33FE6B
:06020600ED33FD02033898
:10020C00020360EC5D046005E859047003020356B8
:10021C00120321580460F6EC4860F2EC7004FDFE09
:10022C00FF22C860DB2481C85009C39860025006C5
:10023C0002035D9850CAF582E9294B4A7005AB82DE
:10024C0002034C75F0007C1A7880C3EF9BEE9AED9C
:10025C0099400DC3EF9BFFEE9AFEED99FDE842F03D
:10026C00DC23ACF0D0E0FFD0E0FED0E0FDAB822090
:10027C00E7101BEB60BAEC2CFCEF33FFEE33FEED1A
:10028C0033FD020338E803F830E705C0F075F000E1
:10029C00EF2FFFEE33FEED33FD40B830E7C280AAFE
:1002AC0075F020800E75F010800575F0087D007ECD
:1002BC00007F003392D530D503120384EC33401009
:1002CC00EF33FFEE33FEED33FDEC33FCD5F0ED22D6
:0E02DC00E5F0247EA2D513CC92E7CDCEFF2212
:1002EA00EDD2E7CD33EC3392D524814006E4FFFE0C
:1002FA00FDFC22FCE4CFCECDCC24E0501174FF806B
:10030A00EDC3CC13CCCD13CDCE13CECF13CF047007
:07031A00F030D5DE02038480
:10032100E9D2E7C933E833F892D5EDD2E7CD33EC22
:0703310033FC5002B2D5229B
:10033800EC30E7100FBF000C0EBE00080DBD000426
:100348000BEB6014A2D5EB13FCED92E7FD2274FFD2
:10035800FCFDFEFF22E480F8A2D574FF13FC7D802B
:03036800E480EF3F
:0300000002073FB5
:0C073F00787FE4F6D8FD7581390207864A
:10036B00BB010689828A83E0225002E722BBFE0290
:09037B00E32289828A83E49322C3
:0E038400C3E49FFFE49EFEE49DFDE49CFC228A
:0A0BC7003098FDAF99C2987E00221D
:10074B0002084DE493A3F8E493A34003F68001F26F
:10075B0008DFF48029E493A3F85407240CC8C333AF
:10076B00C4540F4420C8834004F456800146F6DF7E
:10077B00E4800B0102040810204080900B17E47EEC
:10078B00019360BCA3FF543F30E509541FFEE49373
:10079B00A360010ECF54C025E060A840B8E493A33A
:1007AB00FAE493A3F8E493A3C8C582C8CAC583CA65
:1007BB00F0A3C8C582C8CAC583CADFE9DEE780BE1D
:010B2C0000C8
:00000001FF
